:100000006F006031000000009203000090030000C8
:10001000000000009003000000000000000000004D
:1000200090030000900300000000000000000000AA
:1000300042120000000000009003000000000000D9
:100040009003000090030000900300009003000064
:100050009003000090030000900300009003000054
:100060009003000090030000900300009003000044
:100070009003000090030000900300009003000034
:100080009003000090030000900300009003000024
:100090009003000090030000900300009003000014
:1000A0009003000090030000900300009003000004
:1000B00090030000A00300009003000090030000E4
:1000C00090030000900300009003000090030000E4
:1000D0009003000090030000900300000000000067
:1000E00099C6014863D7B600B685054819A00148EE
:1000F000AE868D8EBA873383E600B308F340634A39
:10010000100593C7F6FFFD87FD8EBA9681473386AB
:10011000F540B388F6006342C00493C7F5FFFD873E
:10012000FD8DB6953385E540630408026372B7021E
:100130009307A002A38FF5FE9386F5FF637AD7009D
:10014000238FF5FE9386E5FF6374D700A38EF5FE3B
:1001500082808507A38FC7FE4DB73306F50003469F
:10016000060085072380C8005DB7AA862E8501CECC
:100170008328060001475C426348A70023800700EC
:100180004842330515418280032886000C427D18C1
:10019000C295E385B7FE938517004CC2B385E60090
:1001A00083C5050005072380B700F1B737F800E0E5
:1001B000032788008327C800B305E50033B5A500F1
:1001C0003E95032688008326C8003307B6403337A0
:1001D000E600B387A640998FE3C507FE8280814879
:1001E0006356050081E63305A0408548058A9307DC
:1001F000100619C2930710043A88254E138667FF2C
:10020000B377B5022A8393F6F70F6364FE049386EF
:10021000060393F6F60F2300D80093071800335512
:10022000B5026376B302638808009306D002238088
:10023000D700930728003385E7400946238007004D
:1002400081463346C502FD1763C7C60082803E88DB
:1002500045BFB2967DBFB305D70083C8070003C86A
:10026000050085062380150123800701E9BFB71724
:100270000020138607C4930606108545CCCA37377D
:100280000240130500042306A7407D5588CE214572
:10029000A306A740CCCE8346D740938707C493E6F6
:1002A0000604A306D74037170020B73602401307CD
:1002B00007C523A8E64037170020130707C923AA5C
:1002C000E64037170020130707CD23ACE640371769
:1002D0000020130707D123AEE6403687C946231115
:1002E000D74289462313D742A30206122315074299
:1002F00003A7C711238307126359E0003737024071
:100300002317D742A383071282806DDF373702405D
:1003100023170742C5BF970100209381610E175133
:100320000020130121CE09651305058873100530DF
:100330008D46170500001305E5CC558D731055301B
:10034000138541C097150020938585A20146635609
:10035000B50010C11105E34EB5FE171500001305D9
:10036000E51A938541C0138641C06388C5001441D6
:1003700094C111059105E39AC5FEB7F700E0154752
:1003800098C385679387C7DC739017347300203058
:1003900001A0371702401C47B7068000D58F1CC745
:1003A0005971BEC0B737024066CC83DC67406EC867
:1003B00086D696D49AD29ED0A2CEA6CCAACAAEC8D1
:1003C000B2C6B6C4BAC242DE46DC4ADA4ED852D60B
:1003D00056D45AD25ED062CE6ACA72C676C47AC287
:1003E0007EC093F72C006384075E83C7C1C013D41B
:1003F000CC4013DB8C400D889374FB0085C3B7178A
:100400000020938707C403C7170183C6070105654A
:100410002686A28513058530EF00D00F0946630FAD
:10042000C404B73702400D47938707406301E42AAD
:1004300063030416B737024009472383E740764435
:10044000B650A65216538653E6445645C645364620
:10045000A646164786477258E2585259C259325A30
:10046000A25A125B825B724CE24C524DC24D324E2C
:10047000A24E124F824F656173002030A1CC137BD6
:10048000CB00E3190BFA8D476398F400B7170020EF
:100490009387C7C023860700B73702409387274258
:1004A000139724003E978357070093C70704231030
:1004B000F70083570700C207C183F19B93E727002A
:1004C0002310F700B7170020938707C4A69723824D
:1004D00007128DB737140020930704C483D7270071
:1004E000130404C499E7B7370240130700082391A7
:1004F000E7428329C40023040412638A0904835455
:10050000240093070004268963F397003E8942097B
:1005100013590901B384244137150020C2044A86C7
:10052000CE85130505C5C1803D2723119400814761
:1005300099C0B38729015CC4B73702402390274391
:1005400003D72742134707042391E742E5B58347C2
:10055000140093F7070699CF83572400E38C07EC28
:10056000034704008547E307F7ECB73702402390C1
:100570000742F9B7034704009547E31DF7EAB73789
:10058000024083C637400347940093F60608558F10
:10059000A381E74045B503D78700B1E893971C01D5
:1005A000E3DA07E8B7170020138707C403460700FC
:1005B000A546938707C46302D602239107000387E9
:1005C00017006345070005472384E712B737024049
:1005D000239007421307000585BF0357270065D303
:1005E000B737024003D7274213470708B1BFB736D2
:1005F00002409386264213972400369783560700BD
:1006000093C606082310D700E396C4E237170020EC
:100610009306C7C003C606031307C7C001C62388D5
:10062000060209BD83D6870014574C5383D7870031
:10063000AE97B697545763F3F600958F93F637004D
:100640008DC2373602408356A6429107F19BC206FF
:10065000C182CD9A93E686002315D64285462308AB
:10066000D7029306003C63FDF600B737024093873C
:100670000740145783D78700AE97B6975CD781475A
:10068000B71600209386C680B697B7360240938689
:1006900006409CCE14579307F03F63F0D702B7365D
:1006A000024083D7A642C207C183CD9B93E7870050
:1006B0002395F64285472308F702B7370240938710
:1006C000074083D787001457B6971CD7A5B383C7B5
:1006D0007700E207E187E3DF07D4371D0020B73753
:1006E00002401307A00D2391E74293070DC403D7DF
:1006F000070183D9470103DC67019356870022076E
:10070000558F2310EDC403D72701139A090183CB1A
:100710000701336AEA0003C917012391870123A265
:10072000470183C7C1C0E28A13040DC491CB05659C
:10073000D2874E87E2864A86DE8513058535D92B1A
:1007400093F70B06F1CF13070002639BE710834971
:10075000140033F7E90045CF130720026306E906CA
:10076000636D2701630FF90093071002630CF9060C
:10077000B73702401307F00CC1BB93073002E319EF
:10078000F9FE83542400BDE4231104008144E209EE
:1007900093D9894163C5090083572400ADEF9307BE
:1007A000000463D39700BE84C204B7370240C180FF
:1007B00023909742130700042391E74283572400B4
:1007C000858F2311F400BDB15840B71700209387DF
:1007D000C7C0058B09C705472389E7025DB7238991
:1007E000070245B7B7170020835424009387C7C07A
:1007F0005CC4BDDC0329C400371500202686CA85E9
:10080000130505C5269981292326240149B793F7A5
:100810000904B9DF95BFB7370240130700082DB3AD
:10082000AD47E3E727F58567938787430A093E9934
:1008300083270900828785679387074C85669843DD
:1008400063144705D84383C78700130D0DC458C4EC
:100850006353FC00E2872311FD005C40A304F40015
:1008600093958B01E18563D305149307000463D34B
:100870005701BE8AC20AB737024093DA0A012390B1
:100880005743239107427DB6B10713878650E398FB
:10089000E7FAF9BD83478400035724002308F400D6
:1008A0008547E3FFE7FA2311F4005DBF5C402304B2
:1008B000F4008547A305F40065B713F7FB018947EA
:1008C000E318F7EA137AFA0FE3140AEA137BCB0072
:1008D000E3100BEA93F90908E38C09E893874404D1
:1008E0008A07A2979443FD57E394F6E8B73702408E
:1008F0008A0493872742BE942390E40095B793F728
:10090000FB010947E396E7E6137AFA0FE3120AE6DA
:1009100093D7AC008D8BA9F793F90908E38A09E412
:10092000938744048A07A2979843FD57E312F7E49C
:10093000B7370240938727428A04BE9483D70400C6
:1009400093E737002390F40021BF23080400E35904
:1009500080F1854A31B72318040093F7FB01B1C336
:100960000947E397E7E0137BCB00E3130BE093F930
:100970000908E38F09DE938744048A07A297984306
:10098000FD57E317F7DEB7370240938727428A0403
:10099000BE9483D704008D8BF51793B717002308F7
:1009A000F4008947E3DE87EBBE8A5DBDB7370240BE
:1009B000938727421307000963980A0037370240DC
:1009C00023100742130700042390E700A5B493F710
:1009D0001C009DCB83C7C1C089C7056513050538B9
:1009E0001126B7170020938707C423940700238597
:1009F0000700A385070037340240A301044085386F
:100A000085472303F44025BC93F74C00B1C383C74B
:100A1000C1C089C705651305C538E9249147373436
:100A200002402303F4401305001EEFF02FF8834625
:100A3000544037170020130707C4918A8347A70043
:100A400091C693E727002305F700D5BAF59BE5BFCC
:100A5000B737024013F7FC0F2383E74083C7C1C0B9
:100A6000E38F079C0565E6851305C5396524C1BA82
:100A7000AA8703C7070001E73385A740828085075F
:100A8000CDBF757122C5E6D206C726C34AC1CEDEE8
:100A9000D2DCD6DADAD8DED6E2D4EAD0EECE3284B0
:100AA000B68C31E101499304A0168149930A5002A2
:100AB000130A0003254BA94B83470400130D1400B0
:100AC000A30FF10085E7BA402A449A440A49665ABE
:100AD000D65A465BB65B265C965C065DF64D4E8547
:100AE000F65949618280AA842E89C1B7638C570167
:100AF0004A8685451305F1018294668C6A84AA9919
:100B0000E28C5DBF0347140093072400528DA30FAE
:100B1000E100631E47073E848146814701A8B387F1
:100B200077030347040005048546B297130607FDC3
:100B30009375F60FE375BBFE99C2A30FE100E14682
:100B4000BE8D63D3F600B68D9306C00601466318CA
:100B5000D7000347040005460504A30FE1008346C0
:100B6000F101130740066383E6066365D702930726
:100B700080056380F60A93073006638EF60AA1D6D5
:100B80004A8685451305F1018294668C8DBF130D4D
:100B9000000251B713075007638AE6021307800764
:100BA0006389E60613073007E39CE6FC138C4C00D0
:100BB00083AC0C003EC66685653DB247AA85635985
:100BC000F0083818EE866A86668525A0138C4C00DE
:100BD00005CA9386B6F8181093B6160003A50C0044
:100BE0000146A945EFF0AFDF3818EE866A86AA8580
:100BF0000810EFF0EFCEAA854A862818829401B734
:100C00009307500718106394F6008546C1BF8146CC
:100C1000F1B703A50C00138686FA18108546133623
:100C20001600C145EFF0AFDB138C4C00AA853818D5
:100C3000EE866A8675BF83A70C00138C4C003818AB
:100C4000A30FF100EE866A8685451305F10155B7BD
:100C50004A86668565B781476313F60082803387CD
:100C6000F500834607003307F50085072300D7000A
:100C7000E5B7B7E700E0096723A2E718B717002038
:100C80009387C7C0D84B9306F07F2E9763ECE6029C
:100C9000D84B944B2E8641113697D44B06C623AEC3
:100CA0000700AE96AA85370500201305C5003A95C2
:100CB000D4CB5537B240B7E700E0096723A2E7106D
:100CC00041018280B7E700E0096723A2E710828034
:100CD000411122C406C62E84693FB24022852244B7
:100CE00041018280411106C66133B24005054101D0
:100CF0008280B7270240094798C3B71702403707D9
:100D0000080023A207001307170898C337079F009E
:100D100098C78280397132D42A8605652ED236D69C
:100D200081455410130505CD06CE3AD83EDA42DC93
:100D300046DE36C6B933F24021618280011122CCF1
:100D400026CA4AC84EC606CEAA8401443739014095
:100D50009309400683578900898B85EB631E340114
:100D600005651305453B7D370145F2406244D24499
:100D70004249B249056182803165130505B8050411
:100D8000EFF0CFC21374F40FF1B7E30B34FD231669
:100D900099000144B734014083D78400858B89EBE7
:100DA0009307300663FF870005651305853D65BF22
:100DB0003165130505B80504EFF04FBF1374F40F48
:100DC000E1BF03D5C4001375F50F45B75D7186C645
:100DD000A2C4A6C2CAC04EDE52DC66D26AD056DABF
:100DE0005AD85ED662D46ECE2937B7F700E03166A6
:100DF00023A007001306F6B790CB8146D4CB01465B
:100E000090C78146D4C798433714002013677700F2
:100E100098C323A2C1C01307C4C0232E07002324F4
:100E2000070023A4D1C037E900E085672320F9102B
:100E3000B7170240944FB7340240371A002093E6A8
:100E4000D60194CF9546D4CB9306004054D7F16693
:100E5000938606202326D4C0B706081E54C3938465
:100E600004401307CA8098CC984FB7060140130579
:100E7000001E1367170198CF984E814C1304C4C00D
:100E8000137707F31367C70C98CEB7160140D84EF7
:100E9000130ACA80137707F013674708D8CE0947AB
:100EA00098D2D84B85668506558FD8CB9947238035
:100EB000F40023800400EFF06FAF9D472381F4001E
:100EC000A3810400930790022380F400FD5723833D
:100ED000F400EFF0CFB9930710F8A380F4003717B0
:100EE000014089672322F9101307478003A941C0F5
:100EF00083A981C01C439305400693F7F7F093E75D
:100F000007011CC31356F941834724036385072C4B
:100F1000B71A0140B7190140938A0A80938909C022
:100F2000056B856B130C004003A541C083A581C0F0
:100F30009357F941330725413336E500B387F54030
:100F40006396C7009307803E63F7E70603A741C097
:100F500083A781C03A8963920C2C9307002023A8B1
:100F6000FA00854C0145D93B83A7490113050009C7
:100F700093E7070823AAF900D1330145C13301459E
:100F8000753B0145653B0145553B2AC601457D330F
:100F900083A70901B245AA8493E7070823A8F900AB
:100FA00013050B40853BA68513850B41A5330565CD
:100FB0001305454285331C50A1CB37E700E0896615
:100FC0002322D71818541D8F18D45850BA9713F7E6
:100FD000370019C39107F19B5CD08347040323209A
:100FE000040291CF1C5481EFB737024003D7A742C8
:100FF000C166CD16758F2395E74223080402B7E733
:1010000000E0096723A2E7101C54C9CB0967B7E7C2
:1010100000E023A2E718545458506369D7002322F4
:10102000040223268403930600400147B307EA0025
:1010300003C60700930720076314F604B705674546
:10104000B7270240938535123796EFCDCCC31306F0
:10105000B69AD0C38CD790D7D047F175FD156D8E59
:10106000D0C7D04791654D8ED0C7904B1366060808
:1010700090CBB707EFBE37E600E0938707083CC682
:101080001C54BA973387E64063F3D700185419C746
:1010900018D0B7E700E0096723A2E7105C48FDC756
:1010A0008347C4006391071854481307F00393075C
:1010B00000046368D700544C094781476373D70025
:1010C0005C480C488564938404808D8C63F397009E
:1010D000BE84CDCCB7E700E00967B71D002023A28E
:1010E000E718938D0DC483C78D1223240400D1EB20
:1010F00083C77D12D9E783D72D00C1E7B7370240F8
:101100009387074083C77700E207E18763CB070631
:1011100037150020130705D1B737024023AEE7404B
:10112000B70700209387C700BE952686130505D113
:101130001D369397040137370240C1832316F742C7
:10114000BA870357E742C166F116758F2397E742C6
:101150008547A383FD1293F7F40F2306F4005C4840
:101160001307F07F858F5CC81C48A6976373F70050
:1011700081471CC8930700046395F4008547230C3E
:10118000F400B7E700E0096723A2E7108347840172
:10119000E38C07D88347C400E39807D81844930723
:1011A000B003E3F3E7D837E600E089652322B618F9
:1011B00085472306F400B737024003D7E742C166EC
:1011C000F11623240400758F2397E742230C0400B3
:1011D0002322B61091BB83A741C003A881C0B38668
:1011E000274133B7D700B307C8406394E700E3FD56
:1011F000D5D003A941C083A981C0B7170140938707
:10120000078063970C001307002098CB854CDDB94D
:101210003707000298CB814CF5B1B707000223A82D
:10122000FA00814C81B3184493077025E3F0E7F688
:10123000B717002023060400938707C4A38307126F
:10124000B1B701113AC637F700E042C203280701DF
:101250003EC4B16746C0938707B883284701C29749
:101260002ACE2ECC32CA36C833B507011CCBB30602
:10127000150154CBB7170020232207009387C7C05E
:10128000D84F03A841C00507D8CF984783A881C08D
:101290001305180033360501050723A2A1C098C71E
:1012A000B307160123A4F1C07245E2455246C24677
:1012B0003247A2471248824805617300203000007F
:1012C0000803300030003700000000002003550004
:1012D000530042002D007300650072006900610038
:1012E0006C0020006C0069006E006B0000000000C4
:1012F00010036300680033003200660075006E0062
:1013000000000000040309045B5553425D20545261
:10131000414E534645522C20746F6B656E203D2024
:10132000253032782C206570203D2025642C2062E9
:101330006D5265717565737454797065203D202513
:101340003032782C206252657175657374203D20AF
:10135000253032780A0000005B5553425D2053452A
:101360005455503A202530327820253032782025C7
:10137000303264202530327820253034780A00005D
:101380005B5553425D205245534554005B555342D3
:101390005D2053555350454E440000005B55534269
:1013A0005D20696E7466677374203D202530347843
:1013B0000A000000545820656D707479206E6F74B7
:1013C000207365742C2074696D656F757420726567
:1013D00061636865640A0D005258206E6F74206561
:1013E0006D707479206E6F74207365742C2074692D
:1013F0006D656F757420726561636865640A0D00C0
:101400004D616E75662049443A2030782578000099
:10141000204465766963652049443A203078257810
:101420000A0D000048656C6C6F616674657220720D
:101430006561640A0D00000056090000BA0800004A
:1014400070070000FE080000700700005A08000046
:10145000360800007007000094080000AC08000087
:101460004A090000600800000902430002010080F0
:1014700032090400000102020100052400100105E8
:10148000240100010424020205240600010705814D
:101490000340000109040100020A000000070502E0
:1014A0000240000007058302400000001201100105
:1014B00002000040091235D00700010203010000BC
:1014C00000010000AC140000120000000002000047
:1014D0006814000043000000000300000413000033
:1014E0000400000001030904F012000010000000D5
:1014F00002030904CC1200002000000003030904C9
:08150000C01200000800000009
:00000001FF
