:100000006F002030000000007A0300007803000039
:100010000000000078030000000000000000000065
:1000200078030000780300000000000000000000DA
:1000300058100000000000007803000000000000DD
:1000400078030000780300007803000078030000C4
:1000500078030000780300007803000078030000B4
:1000600078030000780300007803000078030000A4
:100070007803000078030000780300007803000094
:100080007803000078030000780300007803000084
:100090007803000078030000780300007803000074
:1000A0007803000078030000780300007803000064
:1000B0007803000088030000780300007803000044
:1000C0007803000078030000780300007803000044
:1000D00078030000780300007803000000000000AF
:1000E00099C6014863D7B600B685054819A00148EE
:1000F000AE868D8EBA873383E600B308F340634A39
:10010000100593C7F6FFFD87FD8EBA9681473386AB
:10011000F540B388F6006342C00493C7F5FFFD873E
:10012000FD8DB6953385E540630408026372B7021E
:100130009307A002A38FF5FE9386F5FF637AD7009D
:10014000238FF5FE9386E5FF6374D700A38EF5FE3B
:1001500082808507A38FC7FE4DB73306F50003469F
:10016000060085072380C8005DB7AA862E8501CECC
:100170008328060001475C426348A70023800700EC
:100180004842330515418280032886000C427D18C1
:10019000C295E385B7FE938517004CC2B385E60090
:1001A00083C5050005072380B700F1B737F800E0E5
:1001B000032788008327C800B305E50033B5A500F1
:1001C0003E95032688008326C8003307B6403337A0
:1001D000E600B387A640998FE3C507FE8280814879
:1001E0006356050081E63305A0408548058A9307DC
:1001F000100619C2930710043A88254E138667FF2C
:10020000B377B5022A8393F6F70F6364FE049386EF
:10021000060393F6F60F2300D80093071800335512
:10022000B5026376B302638808009306D002238088
:10023000D700930728003385E7400946238007004D
:1002400081463346C502FD1763C7C60082803E88DB
:1002500045BFB2967DBFB305D70083C8070003C86A
:10026000050085062380150123800701E9BF138659
:100270004104930606108545CCCA37370240130562
:1002800000042306A7407D5588CE2145A306A7403C
:10029000CCCE8346D7409387410493E60604A30659
:1002A000D740B73602401387410523A8E64013879D
:1002B000410923AAE6401387410D23ACE64013878A
:1002C000411123AEE6403687C9462311D7428946FD
:1002D0002313D742A30206122315074203A7C7110F
:1002E000238307126359E000373702402317D742B0
:1002F000A383071282806DDF37370240231707423E
:10030000C5BF970100209381A10F17510020130151
:1003100061CF096513050588731005308D461705F3
:100320000000130525CE558D73105530138541C03F
:100330009385011701466356B50010C11105E34EC0
:10034000B5FE171500001305E5FE938541C0138621
:1003500041C06388C500144194C111059105E39A19
:10036000C5FEB7F700E0154798C38567938787D91F
:10037000739017347300203001A0371702401C47D8
:10038000B7068000D58F1CC75971BEC0B737024071
:1003900066CC83DC67406EC886D696D49AD29ED04F
:1003A000A2CEA6CCAACAAEC8B2C6B6C4BAC242DEF3
:1003B00046DC4ADA4ED852D656D45AD25ED062CEF5
:1003C0006ACA72C676C47AC27EC093F72C00638C68
:1003D000075A83C7C1C013D4CC4013DB8C400D88AF
:1003E0009374FB0091CF9387410403C7170183C621
:1003F000070105652686A28513058511EF00500EBD
:100400000946630FC404B73702400D47938707407E
:100410006303E428630B0414B737024009472383BE
:10042000E7407644B650A65216538653E6445645E6
:10043000C6453646A646164786477258E258525970
:10044000C259325AA25A125B825B724CE24C524D34
:10045000C24D324EA24E124F824F65617300203062
:10046000A1C8137BCB00E3190BFA8D476396F40008
:100470009387010123860700B737024093872742FD
:10048000139724003E978357070093C70704231050
:10049000F70083570700C207C183F19B93E727004A
:1004A0002310F70093874104A69723820712ADB764
:1004B0009387410483D727001384410499E7B73712
:1004C0000240130700082391E7428329C400230454
:1004D00004126388090483542400930700042689C6
:1004E00063F397003E89420913590901B3842441FB
:1004F000C2044A86CE8513854105C1802927231170
:100500009400814799C0B38729015CC4B737024082
:100510002390274303D72742134707042391E74239
:10052000E5BD8347140093F7070699CF835724004E
:10053000E38407EE034704008547E30FF7ECB73782
:10054000024023900742F9B7034704009547E3159B
:10055000F7ECB737024083C637400347940093F661
:100560000608558FA381E74045BD03D78700A1E862
:1005700093971C01E3D207EA13874104034607005F
:10058000A546938741046302D6022391070003879F
:1005900017006345070005472384E712B737024079
:1005A000239007421307000595BF0357270065D323
:1005B000B737024003D727421347070885B7B73636
:1005C00002409386264213972400369783560700ED
:1005D00093C606082310D700E390C4E49386010174
:1005E00003C606031387010101C6238806022DB541
:1005F00083D6870014574C5383D78700AE97B6979E
:10060000545763F3F600958F93F637008DC2373653
:1006100002408356A6429107F19BC206C182CD9A41
:1006200093E686002315D64285462308D702930613
:10063000003C63FDF600B73702409387074014572C
:1006400083D78700AE97B6975CD78147938601C161
:10065000B697B7360240938606409CCE1457930750
:10066000F03F63F0D702B736024083D7A642C207F5
:10067000C183CD9B93E787002395F64285472308E6
:10068000F702B73702409387074083D78700145794
:10069000B6971CD751B383C77700E207E187E3DD44
:1006A00007D6B73702401307A00D2391E74293877F
:1006B000410403D7070183D9470103DC670193563F
:1006C00087002207558F2392E10403D72701139A4D
:1006D000090183CB0701336AEA0003C9170123919B
:1006E000870123A2470183C7C1C0E28A1384410462
:1006F00091CB0565D2874E87E2864A86DE85130553
:100700008516F92B93F70B06E1CB130700026395CF
:10071000E7108349140033F7E90055C71307200297
:100720006306E906636D2701630FF9009307100262
:10073000630AF906B73702401307F00CC5B39307F5
:100740003002E319F9FE83542400BDE023110400B4
:100750008144E20993D9894163C509008357240084
:10076000BDE79307000463D39700BE84C204B73784
:100770000240C18023909742130700042391E7426F
:1007800083572400858F2311F40079B15840938753
:100790000101058B09C705472389E7026DB7238946
:1007A000070255B783542400938701015CC4D9D054
:1007B0000329C4002686CA85138541052699A121EF
:1007C0002326240179B793F70904ADD741B7B7378A
:1007D00002401307000899B3AD47E3ED27F585679D
:1007E000938707260A093E99832709008287856730
:1007F0009387872E8566984363144705D84383C73C
:100800008700138D410458C46353FC00E287231111
:10081000FD005C40A304F40093958B01E18563D354
:1008200005149307000463D35701BE8AC20AB73781
:10083000024093DA0A012390574323910742E9BE0D
:10084000B10713870633E398E7FAEDB583478400D1
:10085000035724002308F4008547E3FFE7FA231138
:10086000F4005DBF5C402304F4008547A305F40059
:1008700065B713F7FB018947E31EF7EA137AFA0F0E
:10088000E31A0AEA137BCB00E3160BEA93F9090893
:10089000E38209EA938744048A07A2979443FD57A9
:1008A000E39AF6E8B73702408A0493872742BE945A
:1008B0002390E40095B793F7FB010947E39CE7E633
:1008C000137AFA0FE3180AE693D7AC008D8BA9F7D9
:1008D00093F90908E38009E6938744048A07A297FD
:1008E0009843FD57E318F7E4B73702409387274250
:1008F0008A04BE9483D7040093E737002390F40062
:1009000021BF23080400E35980F1854A31B7231839
:10091000040093F7FB01B1C30947E39DE7E0137BB4
:10092000CB00E3190BE093F90908E38509E093870D
:1009300044048A07A2979843FD57E31DF7DEB737B3
:100940000240938727428A04BE9483D704008D8B8C
:10095000F51793B717002308F4008947E3DE87EB08
:10096000BE8A5DBDB737024093872742130700094F
:1009700063980A0037370240231007421307000428
:100980002390E70051BC93F71C008DCB83C7C1C0F7
:1009900089C7056513050519212E93874104239402
:1009A000070023850700A385070037340240A30111
:1009B0000440753885472303F440A5B493F74C00F1
:1009C000A1C383C7C1C089C705651305C519CD2457
:1009D0009147373402402303F4401305001EEFF023
:1009E000EFFC8346544013874104918A8347A70054
:1009F00091C693E727002305F70025B4F59BE5BFD3
:100A0000B737024013F7FC0F2383E74083C7C1C009
:100A1000E38907A00565E6851305C51AD12411B43D
:100A2000AA8703C7070001E73385A74082808507AF
:100A3000CDBF757122C5E6D206C726C34AC1CEDE38
:100A4000D2DCD6DADAD8DED6E2D4EAD0EECE328400
:100A5000B68C31E101499304A0168149930A5002F2
:100A6000130A0003254BA94B83470400130D140000
:100A7000A30FF10085E7BA402A449A440A49665A0E
:100A8000D65A465BB65B265C965C065DF64D4E8597
:100A9000F65949618280AA842E89C1B7638C5701B7
:100AA0004A8685451305F1018294668C6A84AA9969
:100AB000E28C5DBF0347140093072400528DA30FFF
:100AC000E100631E47073E848146814701A8B38742
:100AD00077030347040005048546B297130607FD14
:100AE0009375F60FE375BBFE99C2A30FE100E146D3
:100AF000BE8D63D3F600B68D9306C006014663181B
:100B0000D7000347040005460504A30FE100834610
:100B1000F101130740066383E6066365D702930776
:100B200080056380F60A93073006638EF60AA1D625
:100B30004A8685451305F1018294668C8DBF130D9D
:100B4000000251B713075007638AE60213078007B4
:100B50006389E60613073007E39CE6FC138C4C0020
:100B600083AC0C003EC66685653DB247AA856359D5
:100B7000F0083818EE866A86668525A0138C4C002E
:100B800005CA9386B6F8181093B6160003A50C0094
:100B90000146A945EFF0AFE43818EE866A86AA85CB
:100BA0000810EFF0EFD3AA854A862818829401B77F
:100BB0009307500718106394F6008546C1BF81461D
:100BC000F1B703A50C00138686FA18108546133674
:100BD0001600C145EFF0AFE0138C4C00AA85381821
:100BE000EE866A8675BF83A70C00138C4C003818FC
:100BF000A30FF100EE866A8685451305F10155B70E
:100C00004A86668565B781476313F600828033871D
:100C1000F500834607003307F50085072300D7005A
:100C2000E5B7411122C406C626C22E8413874104AB
:100C3000034787129384410475FB03C774127DF741
:100C400083D72400B9E7B73702409387074083C7AB
:100C50007700E207E18763CE070201CC938641115A
:100C600037370240AA85232ED740228613854111AB
:100C7000593F4204B737024041802396874203D749
:100C8000E742C166F116758F2397E7428547A38334
:100C9000F412B2402244924441018280411122C4A4
:100CA00006C62E84BD3FB240228522444101828087
:100CB000411106C6B533B240050541018280B72710
:100CC0000240094798C3B71702403707080023A21C
:100CD00007001307170898C337079F0098C782803B
:100CE000397132D42A8605652ED236D68145541004
:100CF0001305C5C906CE3AD83EDA42DC46DE36C612
:100D00000D3BF24021618280011122CC26CA4AC8E3
:100D10004EC606CEAA8401443739014093094006E5
:100D200083578900898B85EB631E340105651305A4
:100D3000451C7D370145F2406244D2444249B249E4
:100D4000056182803165130505B80504EFF00FC613
:100D50001374F40FF1B7E30B34FD2316990001442B
:100D6000B734014083D78400858B89EB9307300625
:100D700063FF870005651305851E65BF3165130593
:100D800005B80504EFF08FC21374F40FE1BF03D56B
:100D9000C4001375F50F45B7797106D622D426D253
:100DA0004AD04ECE52CC56CA5AC85EC662C466C23B
:100DB0003937B7F700E0316623A007001306F6B70E
:100DC00090CB8146D4CB014690C78146D4C7984387
:100DD0001367770098C323A2C1C09387010123A49E
:100DE000D1C023AE070023A40700B7EA00E00567DF
:100DF00023A0EA10B7140240984C37340240130481
:100E000004401367D70198CC1547D8C81307004092
:100E1000D8D771671307072023A8E1003707081EFA
:100E2000D8C3938701C11CCC9C4C370701401305E4
:100E3000001E93E717019CCC1C4F1D4A93890101AA
:100E400093F707F393E7C70C1CCF371701405C4FAC
:100E500093F707F093E747085CCF89471CD3DC483A
:100E600005670507D98FDCC899472300F4002300E4
:100E70000400EFF0AFB323014401A3010400930782
:100E800090022300F400FD572303F400EFF02FBE7F
:100E9000930710F8A300F400896723A2FA109C4C72
:100EA00005677107D98F9CCCB7170140938707C09E
:100EB0009443370700107D17F98E94C39443370687
:100EC000003093054006D18E94C3B7170140938735
:100ED00007809443370600F17D16F18E94C3944346
:100EE00037060004D18E94C39443370610FF7D1655
:100EF000F18E94C394433706B000D18E94C39443CB
:100F0000758F98C39843B70600B0558F98C3B7370D
:100F10000140130740302390E7002398470103D78F
:100F20000700136707042390E700371701401307F2
:100F3000478003A441C083A481C01C43814493F72C
:100F4000F7F093E707011CC31356F44183C7290345
:100F5000638E070A371A0140B7190140930B803E90
:100F6000130A0A80370C0002930C0020938909C0F1
:100F70001356F44183A741C003A881C0B3868740BC
:100F800033B7D700B307C8406394E700E3F4DBFE50
:100F900003A741C083A781C03A84DDE823289A01D2
:100FA000854483A749011305000993E7070823AA8D
:100FB000F900993B0145893B0145B9330145A93306
:100FC000014599332A8B0145813383A70901AA8AF8
:100FD000056593E7070823A8F900DA8513050521BD
:100FE00001330565D68513050522DD399307F00E1B
:100FF0006319FB00D9476396FA000565130545237D
:10100000C53105651305C524E1399DB783A741C0E6
:1010100003A881C0B386874033B7D700B307C84061
:101020006394E700E3F4D5F203A741C083A781C02E
:10103000B71701403A849387078091E41307002093
:1010400098CB854411B73707000298CB8144EDBD9A
:1010500023288A018144B1B701113AC637F700E06D
:1010600042C2032807013EC4B16746C0938707B850
:1010700083284701C2972ACE2ECC32CA36C833B550
:1010800007011CCBB306150154CB2322070093871D
:101090000101D84F03A841C00507D8CF984783A8BE
:1010A00081C01305180033360501050723A2A1C02E
:1010B00098C7B307160123A4F1C07245E245524612
:1010C000C2463247A2471248824805617300203069
:1010D00008033000300037000000000020035500F6
:1010E000530042002D00730065007200690061002A
:1010F0006C0020006C0069006E006B0000000000B6
:1011000010036300680033003200660075006E0053
:1011100000000000040309045B5553425D20545253
:10112000414E534645522C20746F6B656E203D2016
:10113000253032782C206570203D2025642C2062DB
:101140006D5265717565737454797065203D202505
:101150003032782C206252657175657374203D20A1
:10116000253032780A0000005B5553425D2053451C
:101170005455503A202530327820253032782025B9
:10118000303264202530327820253034780A00004F
:101190005B5553425D205245534554005B555342C5
:1011A0005D2053555350454E440000005B5553425B
:1011B0005D20696E7466677374203D202530347835
:1011C0000A000000545820656D707479206E6F74A9
:1011D000207365742C2074696D656F757420726559
:1011E00061636865640A0D005258206E6F74206553
:1011F0006D707479206E6F74207365742C2074691F
:101200006D656F757420726561636865640A0D00B1
:101210004D616E75662049443A203078257800008B
:10122000204465766963652049443A203078257802
:101230000A0D000057323551363446562036344DAB
:1012400062697428384D42290A0D000048656C6CAB
:101250006F20616674657220726561640A0D00001A
:101260000E0900007208000034070000B6080000F4
:101270003407000012080000EE07000034070000E9
:101280004C08000064080000020900001808000073
:101290000902430002010080320904000001020239
:1012A00001000524001001052401000104240202AC
:1012B000052406000107058103400001090401001F
:1012C000020A000000070502024000000705830231
:1012D000400000001201100102000040091235D048
:1012E000070001020301000000010000D412000009
:1012F00012000000000200009012000043000000F5
:1013000000030000141100000400000001030904A0
:10131000001100001000000002030904DC100000AE
:101320002000000003030904D010000008000000A2
:00000001FF
