:100000006F000017000000002C020000E00100005B
:1000100000000000E00100000000000000000000FF
:10002000E0010000E001000000000000000000000E
:10003000E001000000000000E001000000000000FE
:10004000E0010000E0010000E0010000E00100002C
:10005000E0010000E0010000E0010000E00100001C
:10006000E0010000E0010000E0010000E00100000C
:10007000E0010000E0010000E0010000E0010000FC
:10008000E0010000E0010000E0010000E0010000EC
:10009000E0010000E0010000E0010000E0010000DC
:1000A000E0010000E0010000E0010000E0010000CC
:1000B000E0010000E0010000E0010000E0010000BC
:1000C000E0010000E0010000E0010000E0010000AC
:1000D000E0010000E0010000E0010000000000007D
:1000E000B70700E0938707389843137707086DFF39
:1000F0003727307813078708B70600E098C3938640
:10010000063871472548F1559C4293F70708EDFFE3
:100110003356E5003D8AB337C800B307F04093F784
:10012000770293870703B297A20793E757089CC209
:100130007117E31BB7FC828037F800E08326880044
:10014000B7E716000327C80093870736B69733B67C
:10015000D7003A96032588008325C800B306F540EA
:10016000B336D5003387C540158FE34507FE82803F
:10017000970100209381C12817510020130181E8C5
:10018000096513050588731005308D4617050000B5
:10019000130545E7558D73105530138541C0938580
:1001A00041C001466356B50010C11105E34EB5FECE
:1001B0001305402B938541C0138641C06388C50059
:1001C000144194C111059105E39AC5FEB7F700E00B
:1001D000054798C39307C0267390173473002030E7
:1001E00073251034F53D73250030DD3D7325303423
:1001F000C53D73252034ED35B70700E093870738F8
:100200009843137707086DFF0567130757A898C32E
:10021000B70700E0938707389843137707086DFF07
:1002200037B7AAAA130737A898C301A03717024007
:100230001C47B7068000D58F1CC7B7270240094767
:1002400098C3B71702403707080023A20700130717
:10025000170898C337079F0098C7B70700E023A285
:1002600007381307000823A0E7388280411122C411
:1002700026C24AC006C6D137371702401C4F371472
:1002800001401304048093E7D7011CCF37170140C6
:10029000130747801C4313090020B704000293F79B
:1002A000F7F093E707011CC323282401713504C824
:0402B0006135DDBF18
:00000001FF
