:100000006F00A07800000000540800000008000005
:1000100000000000000800000000000000000000D8
:1000200000080000000800000000000000000000C0
:1000300000080000000000000008000000000000B0
:100040000008000000080000000800000008000090
:100050000008000000080000000800000008000080
:100060000008000000080000000800000008000070
:100070000008000000080000000800000008000060
:100080000008000000080000000800000008000050
:100090000008000000080000000800000008000040
:1000A0000008000000080000000800000008000030
:1000B0000008000000080000000800000008000020
:1000C0000008000000080000000800000008000010
:1000D0000008000000080000000800000000000008
:1000E000B70700E0938707389843137707086DFF39
:1000F0003727307813078708B70600E098C3938640
:10010000063871472548F1559C4293F70708EDFFE3
:100110003356E5003D8AB337C800B307F04093F784
:10012000770293870703B297A20793E757089CC209
:100130007117E31BB7FC828037F800E003278800C3
:100140008327C800B305E50033B5A5003E95032617
:1001500088008326C8003307B6403337E600B387EC
:10016000A640998FE3C507FE828003A541C02147C1
:10017000135655019357F501B18FA98F13561500EA
:10018000B18F7D17858B06051377F70F5D8D6DF3A6
:1001900023A2A1C01375F50F8280373701402316C3
:1001A000A70083578700898BEDDF8280B717014056
:1001B00093870780D84B13670704D8CBF9BFB717CD
:1001C000014093870780984B411122C406C61367EC
:1001D00007042A8498CB2181C9371375F40F224470
:1001E000B24041015DBF01114EC6AA891305A002AC
:1001F00006CE22CC26CA4AC8AE84328936847D37E0
:100200004E85753F4A85653F1305B0024537268503
:100210007D3722856D376244F240D2444249B2496B
:100220001305C002056159B7411122C437140140BA
:100230005C48130585029385550326C293960501F4
:10024000B2841316050106C693E787004182C18276
:100250005CC83285B685413F268595371C48B2403B
:10026000924493E787001CC8224441018280B7076B
:100270000240138741C1D8DFC8DB985BB706024054
:10028000130600201367170098DBC167FD17FD15E3
:10029000C205C1816398F500B7070240985B799B5E
:1002A00098DB8280D0C29842137707206DDFC5B7F4
:1002B000797122D44ECE52CC56CA5AC85EC662C498
:1002C00066C206D626D24AD06AC02A849549294BEE
:1002D000854B056C8347040099EFB2502254925429
:1002E0000259F249624AD24A424BB24B224C924CDA
:1002F000024D456182803386370303D5C1C003D8E0
:1003000081C00504137FF50F937EF80F014721810B
:10031000135888009D4FB3076703339EEB00814558
:10032000C207C183B306B6009302CCE0969683C69B
:10033000060013831700BE8889074203C207B3F67D
:10034000C60113530301C183BDCAC283F6829386DB
:1003500041C1B698238078009A962380560085057F
:10036000E39235FD0507E318F7FB371901408327B2
:10037000490183D401C193E78700232AF90083D57B
:10038000E1C013864400420693866500C2062685B6
:10039000C1824182893D93070980984B85451305A9
:1003A00060041367070498CBD935832709019904A2
:1003B00093E787002328F900239891C021BFAA83DF
:1003C000FA8271B7130585029385550341114205E1
:1003D000C20522C44AC006C6368926C2328441817B
:1003E000C18193568700938741C101484286050821
:1003F00042082380D700A380E7001358080189072B
:10040000E31604FFB7140140DC489306F9FFAE96EB
:100410002A9693E78700C2064206DCC8C182418261
:10042000D93393870480984B131514004205136742
:10043000070498CBCA8541811D3D9C48B2402244A7
:1004400093E787009CC802499244410182800111D0
:1004500022CC26CA4AC84EC652C406CE2A891144A6
:1004600093041004130A80079309D0021316140092
:1004700033058A4042064205A286A685418201478D
:1004800041818937F9143D65C2041104130505A69D
:100490004204C18055314180E39A34FD130750086E
:1004A0002398E1C04A85130750072397E1C0093517
:1004B0006244F240D2444249B249224A37955B0035
:1004C000130505D805618DB993D78600A2064111A1
:1004D000D58F22C426C237140140239AF1C0931449
:1004E0000601938555035C48C180C205C18193868E
:1004F000F4FF13058502AE96420506C6418193E7D7
:100500008700C2065CC82A86C182F139930704803D
:10051000984BA68509451367070498CB893B1C486F
:10052000B240924493E787001CC822444101828074
:10053000B68713D78700A2074111D98F22C426C2DC
:1005400037140140239AF1C0931406011305850264
:100550005C48C18042054181938555031386F4FFB1
:100560002A969396050106C6C18293E78700420644
:100570005CC8B6854182853993070480984BA6856F
:1005800009451367070498CBDD311C48B2409244FB
:1005900093E787001CC8224441018280797156CAC2
:1005A000939A050126D24ECE93DA0A41AA84B289E3
:1005B0004205420622D452CC36842E8ABA86418520
:1005C0004186D68506D64AD032C63A892AC48D37A6
:1005D0009307F4FF32462245B305FA00C205CA86E6
:1005E000C1852AC6B1373245131604014186CA8631
:1005F000D68532C4FD19C93D2254338534012246C3
:10060000B2509254F249624ACA86D6850259D24AF9
:100610004205418545614DBD39714AD806DE22DC6F
:1006200026DA4ED652D456D25AD05ECE62CC66CAA4
:100630002E89B685BA866319C50263C52501AE87C2
:10064000CA853E89625413061900F250D2544259A9
:10065000B259225A925A025BF24B624CD24C0D8E26
:100660004206418621618DB5328B631BB90263441A
:10067000A6002A8B32850505330565416254F25088
:10068000D254B259225A925AF24B624CD24C13169F
:100690000501CA855A854259025B4186216149BDDF
:1006A000330CB9406354B900338C2541B30C654118
:1006B00063546501B30CAB4063C88C01AE87DA8527
:1006C0003E8BCA872A893E8563C82501DA872A8B33
:1006D0003E85AE87CA853E89B304B940139A0401AA
:1006E00093190B01C20493170501135A0A01C1841F
:1006F00093D90901C183635CAB02B38737419399F6
:10070000070193D909018584FD5A6353AB00854ADB
:100710006353B902F2506254D2544259B259225A28
:10072000925A025BF24B624CD24C21618280B389B7
:10073000F940C209F9B713940501931B0B0136C6A2
:10074000418093DB0B01368663DE8C03A2855E85D8
:10075000E13CB384344193970401C204C184B2469E
:10076000C18363DC0400D29733865B019394070155
:10077000131B0601C184135B0B410504931504018F
:10078000C18579B7DE852285E1B797010020938185
:1007900021C7175100201301E1860965130505885B
:1007A000731005308D46170500001305A585558D7E
:1007B000731055301385C1C0938541DF01466356E0
:1007C000B50010C11105E34EB5FE17150000130565
:1007D000258C938541C01386C1C06388C500144130
:1007E00094C111059105E39AC5FEB7F700E00547EE
:1007F00098C385679387078B7390173473002030F5
:1008000073251034EFF0DF8D73250030EFF05F8D2E
:1008100073253034EFF0DF8C73252034EFF05F8CDC
:10082000B70700E0938707389843137707086DFFF1
:100830000567130757A898C3B70700E093870738E1
:100840009843137707086DFF37B7AAAA130737A88D
:1008500098C301A0371702401C47B7068000D58F08
:100860001CC781476313F60082803387F5008346F7
:1008700007003307F50085072300D700E5B7B72742
:100880000240094798C3B71702403707080023A260
:1008900007001307170898C337079F0098C7B707C3
:1008A00000E023A207381307000823A0E73882805E
:1008B000197186DEA2DCA6DACAD8D2D4D6D2CED6B8
:1008C000DAD0DECEE2CCE6CAEAC8EEC64D3F372526
:1008D00009001305057CEFF03F86371702401C4FD7
:1008E0008566D106D58F1CCFB71401409C40C576D4
:1008F000FD16F58F9CC09C408D6613840480D58FB7
:100900009CC01C40B70600F1FD16C19B1CC01C40DA
:1009100005651305057793E737001CC01C401309D4
:100920007008F58F1CC01C40B7060003130A000FA7
:10093000D58F1CC01C40B70610FFFD16F58F1CC0DC
:100940001C40B706B000D58F1CC01C40B70600B0D5
:10095000920791831CC01C40D58FF1761CC09386F2
:100960007630B73701402390D7009D462398D700B3
:1009700083D6470093E626002392D70083D607004C
:1009800093E606042390D7005C4B93E717005CCBFB
:100990000D67B70702401307070B98DB3737014095
:1009A000310798DF1C4893E717001CC8EFF0CFF819
:1009B0005C4805651305057793E717005CC8EFF001
:1009C000AFF71C4837050B00130505C893E7170060
:1009D0001CC8EFF06FF6DC48454593E78700DCC89C
:1009E000EFF0CFFC37050B00130505C8EFF0CFF48F
:1009F0001305A003EFF08FFB1C481305500593E788
:100A000007041CC8EFF06FF913056003EFF00FFA4D
:100A10001C481305000693E707041CC8EFF0EFF726
:100A200013051002EFF08FF813059002EFF00FF8A6
:100A30009C482008856593E787009CC813066002E0
:100A40009385C5D72285313D4167130707809306FB
:100A500070081306000F81450145AD32CD44056590
:100A600093070080130545DA2394F1C0239601C053
:100A7000F93A0147930670081306000F81450145B6
:100A80009D69EFF03F9493890953EFF00FEE2A8CA4
:100A9000EFF0AFEDAA8CEFF04FEDB3779502FD19B3
:100AA000B3F52C038607A29703D6070033754C03D2
:100AB000EFF08FF7E39B09FC0565130545DB413A31
:100AC0000147930670081306000F81450145EFF0BA
:100AD0007F8F130C2003814913960901418632C68A
:100AE000EFF0AFE833759502324693067008814502
:100AF000850906052295035705003285313EE39DA1
:100B000049FD7D1CE3190CFC130C200381499396CD
:100B10000901C18636C6EFF04FE533759502B2463E
:100B20001306000F8509B6850605229503570500B3
:100B30000145DD34E39D29FD7D1CE3190CFC0565B1
:100B4000130505DCEFF0BF900147CA861306000FBE
:100B500081450145EFF01F879309007DEFF0EFE03D
:100B60002A8CEFF08FE0AA8CEFF02FE02A8DEFF0C7
:100B7000CFDFAA8DEFF06FDFB3779502FD19B3F6E3
:100B80002D038607A29703D7070033764D03B3F5ED
:100B90002C0333754C034934E39209FC05651305B6
:100BA000C5DCEFF0DF8A0147930670081306000FDB
:100BB00081450145EFF01F81930C4006130D300471
:100BC000014C9309000F93150C01C1812EC6EFF063
:100BD000CFD933759502B245938679F94E86C20610
:100BE000F919C182C209050C93D90901060522959C
:100BF000035705002E85EFF07F9AE316ACFDFD1C30
:100C0000E3900CFC0565130585DDEFF05F8401477B
:100C1000930670081306000F814501458569EFF0C2
:100C20006FFA93898938EFF04FD42A8CEFF0EFD325
:100C3000AA8CEFF08FD3B3779502D1463686FD1993
:100C4000B3F52C038607A29703D7070033754C032F
:100C5000EFF0DF94E39909FC0565130545DEEFF03D
:100C60000FFF0147930670081306000F81450145E9
:100C70008569EFF02FF593898938EFF00FCF2A8C33
:100C8000EFF0AFCEAA8CEFF04FCEB3779502D146FE
:100C90003686FD19B3F52C038607A29703D7070004
:100CA00033754C03EFF00FF2E39909FC056513056A
:100CB00005DFEFF0CFF90147930670081306000F28
:100CC00081450145EFF00FF04167054C930B301F54
:100CD000130D07D2E28C814DD147B3F7FB0299EB9C
:100CE000EFF0AFC8C947B377F50285078607A2972B
:100CF00003DD0700C54613068005EE856A874E852D
:100D0000EFF04FECEFF06FC6337595022396A1C15B
:100D1000060522958357050005651305C5DF239455
:100D2000F1C09387D9022398F1C09387AD0323972D
:100D3000F1C0EFF0EFD7375502001305059FEFF034
:100D4000AFBFE69993F9F90F9307700963F637017E
:100D5000B308904193FCF80FB3858D0193FDF50F17
:100D60009307500763F6B70133088041137CF80FEF
:100D7000FD1BFD57E392FBF6DDB1000000000F0004
:100D8000E003EF0300780F78E07B18C6EF7B1F00CD
:100D9000E007FF0700F81FF8E0FFFFFF20FDE5AFC9
:100DA00018FC00004472617720506F696E74000077
:100DB000000000005363616E204C696E6500000006
:100DC00044726177204C696E650000005363616E68
:100DD000205265637400000044726177205265639D
:100DE0007400000046696C6C20526563740000005A
:100DF0004D6F7665205465787400000048656C6C12
:100E00006F2C20576F726C642100000000000000FE
:100E1000003E5B4F5B3E3E6B4F6B3E1C3E7C3E1C80
:100E2000183C7E3C181C577D571C1C5E7F5E1C00C6
:100E3000183C1800FFE7C3E7FF0018241800FFE77D
:100E4000DBE7FF30483A060E2629792926407F0540
:100E50000507407F05253F5A3CE73C5A7F3E1C1C56
:100E600008081C1C3E7F14227F22145F5F005F5F16
:100E700006097F017F006689956A60606060609402
:100E8000A2FFA29408047E040810207E2010080807
:100E90002A1C08081C2A08081E101010100C1E0C12
:100EA0001E0C30383E3830060E3E0E0600000000A4
:100EB0000000005F00000007000700147F147F148B
:100EC000242A7F2A122313086462364956205000D0
:100ED00008070300001C2241000041221C002A1CBC
:100EE0007F1C2A08083E08080080703000080808A7
:100EF0000808000060600020100804023E514945C7
:100F00003E00427F400072494949462141494D33E4
:100F10001814127F1027454545393C4A494931414B
:100F2000211109073649494936464949291E000019
:100F3000140000004034000000081422411414146E
:100F40001414004122140802015909063E415D595A
:100F50004E7C1211127C7F494949363E4141412263
:100F60007F4141413E7F494949417F090909013E8D
:100F7000414151737F0808087F00417F41002040B4
:100F8000413F017F081422417F404040407F021CC6
:100F9000027F7F0408107F3E4141413E7F090909DD
:100FA000063E4151215E7F091929462649494932A9
:100FB00003017F01033F4040403F1F2040201F3F6F
:100FC0004038403F631408146303047804036159F4
:100FD000494D43007F414141020408102000414136
:100FE000417F0402010204404040404000030708E2
:100FF0000020545478407F284444383844444428DE
:10100000384444287F385454541800087E09021884
:10101000A4A49C787F0804047800447D400020400C
:10102000403D007F1028440000417F40007C047850
:1010300004787C080404783844444438FC18242498
:101040001818242418FC7C08040408485454542418
:1010500004043F44243C4040207C1C2040201C3C95
:101060004030403C44281028444C9090907C44648C
:10107000544C44000836410000007700000041361F
:0C108000080002010204023C2623263C6A
:08108C0001000000FFFF00005D
:00000001FF
